{
  "contractName": "Dbbl",
  "abi": [
    {
      "anonymous": false,
      "inputs": [
        {
          "indexed": true,
          "internalType": "uint256",
          "name": "certificate_id",
          "type": "uint256"
        },
        {
          "indexed": false,
          "internalType": "address",
          "name": "owner",
          "type": "address"
        },
        {
          "indexed": false,
          "internalType": "uint256",
          "name": "date",
          "type": "uint256"
        }
      ],
      "name": "CertificatePublished",
      "type": "event"
    },
    {
      "inputs": [
        {
          "internalType": "uint256",
          "name": "certificateId",
          "type": "uint256"
        },
        {
          "components": [
            {
              "internalType": "uint256",
              "name": "id",
              "type": "uint256"
            },
            {
              "internalType": "string",
              "name": "customerId",
              "type": "string"
            },
            {
              "internalType": "string",
              "name": "emailAddress",
              "type": "string"
            },
            {
              "internalType": "string",
              "name": "fullName",
              "type": "string"
            },
            {
              "internalType": "string",
              "name": "fatherName",
              "type": "string"
            },
            {
              "internalType": "string",
              "name": "motherName",
              "type": "string"
            },
            {
              "internalType": "string",
              "name": "villageOrHouse",
              "type": "string"
            },
            {
              "internalType": "string",
              "name": "postOffice",
              "type": "string"
            },
            {
              "internalType": "string",
              "name": "policeStation",
              "type": "string"
            },
            {
              "internalType": "string",
              "name": "district",
              "type": "string"
            },
            {
              "internalType": "string",
              "name": "accountNumber",
              "type": "string"
            },
            {
              "internalType": "string",
              "name": "accountTitle",
              "type": "string"
            },
            {
              "internalType": "string",
              "name": "accountType",
              "type": "string"
            },
            {
              "internalType": "string",
              "name": "accountOpenDate",
              "type": "string"
            },
            {
              "internalType": "string",
              "name": "currency",
              "type": "string"
            },
            {
              "internalType": "string",
              "name": "balance",
              "type": "string"
            },
            {
              "internalType": "string",
              "name": "balanceInWord",
              "type": "string"
            }
          ],
          "internalType": "struct Dbbl.Certificate_payload",
          "name": "certificatePayload",
          "type": "tuple"
        }
      ],
      "name": "publishCertificate",
      "outputs": [],
      "stateMutability": "nonpayable",
      "type": "function"
    },
    {
      "inputs": [
        {
          "internalType": "uint256",
          "name": "certificateId",
          "type": "uint256"
        }
      ],
      "name": "getCertificateDetailsById",
      "outputs": [
        {
          "components": [
            {
              "internalType": "uint256",
              "name": "id",
              "type": "uint256"
            },
            {
              "internalType": "string",
              "name": "customerId",
              "type": "string"
            },
            {
              "internalType": "string",
              "name": "emailAddress",
              "type": "string"
            },
            {
              "internalType": "string",
              "name": "fullName",
              "type": "string"
            },
            {
              "internalType": "string",
              "name": "fatherName",
              "type": "string"
            },
            {
              "internalType": "string",
              "name": "motherName",
              "type": "string"
            },
            {
              "internalType": "string",
              "name": "villageOrHouse",
              "type": "string"
            },
            {
              "internalType": "string",
              "name": "postOffice",
              "type": "string"
            },
            {
              "internalType": "string",
              "name": "policeStation",
              "type": "string"
            },
            {
              "internalType": "string",
              "name": "district",
              "type": "string"
            },
            {
              "internalType": "string",
              "name": "accountNumber",
              "type": "string"
            },
            {
              "internalType": "string",
              "name": "accountTitle",
              "type": "string"
            },
            {
              "internalType": "string",
              "name": "accountType",
              "type": "string"
            },
            {
              "internalType": "string",
              "name": "accountOpenDate",
              "type": "string"
            },
            {
              "internalType": "string",
              "name": "currency",
              "type": "string"
            },
            {
              "internalType": "string",
              "name": "balance",
              "type": "string"
            },
            {
              "internalType": "string",
              "name": "balanceInWord",
              "type": "string"
            }
          ],
          "internalType": "struct Dbbl.Certificate_payload",
          "name": "",
          "type": "tuple"
        }
      ],
      "stateMutability": "view",
      "type": "function",
      "constant": true
    },
    {
      "inputs": [
        {
          "internalType": "uint256",
          "name": "certificateId",
          "type": "uint256"
        }
      ],
      "name": "isCertificateVerified",
      "outputs": [
        {
          "internalType": "bool",
          "name": "",
          "type": "bool"
        }
      ],
      "stateMutability": "view",
      "type": "function",
      "constant": true
    },
    {
      "inputs": [],
      "name": "getPublishedCertificateIds",
      "outputs": [
        {
          "internalType": "uint256[]",
          "name": "",
          "type": "uint256[]"
        }
      ],
      "stateMutability": "view",
      "type": "function",
      "constant": true
    },
    {
      "inputs": [],
      "name": "getTotalPublishedCerticates",
      "outputs": [
        {
          "internalType": "uint256",
          "name": "",
          "type": "uint256"
        }
      ],
      "stateMutability": "view",
      "type": "function",
      "constant": true
    }
  ],
  "bytecode": "0x608060405234801561001057600080fd5b50611a8c806100206000396000f3fe608060405234801561001057600080fd5b50600436106100575760003560e01c8063389f2a821461005c57806374c7e82a1461007a578063a978204714610098578063cffbdb99146100c8578063ee1dda80146100e4575b600080fd5b610064610114565b60405161007191906117bd565b60405180910390f35b610082610120565b60405161008f919061173e565b60405180910390f35b6100b260048036038101906100ad91906113b4565b610178565b6040516100bf919061179b565b60405180910390f35b6100e260048036038101906100dd91906113dd565b610ad0565b005b6100fe60048036038101906100f991906113b4565b610eda565b60405161010b9190611760565b60405180910390f35b60008080549050905090565b6060600080548060200260200160405190810160405280929190818152602001828054801561016e57602002820191906000526020600020905b81548152602001906001019080831161015a575b5050505050905090565b610180610f04565b6001600083815260200190815260200160002060405180610220016040529081600082015481526020016001820180546101b99061191e565b80601f01602080910402602001604051908101604052809291908181526020018280546101e59061191e565b80156102325780601f1061020757610100808354040283529160200191610232565b820191906000526020600020905b81548152906001019060200180831161021557829003601f168201915b5050505050815260200160028201805461024b9061191e565b80601f01602080910402602001604051908101604052809291908181526020018280546102779061191e565b80156102c45780601f10610299576101008083540402835291602001916102c4565b820191906000526020600020905b8154815290600101906020018083116102a757829003601f168201915b505050505081526020016003820180546102dd9061191e565b80601f01602080910402602001604051908101604052809291908181526020018280546103099061191e565b80156103565780601f1061032b57610100808354040283529160200191610356565b820191906000526020600020905b81548152906001019060200180831161033957829003601f168201915b5050505050815260200160048201805461036f9061191e565b80601f016020809104026020016040519081016040528092919081815260200182805461039b9061191e565b80156103e85780601f106103bd576101008083540402835291602001916103e8565b820191906000526020600020905b8154815290600101906020018083116103cb57829003601f168201915b505050505081526020016005820180546104019061191e565b80601f016020809104026020016040519081016040528092919081815260200182805461042d9061191e565b801561047a5780601f1061044f5761010080835404028352916020019161047a565b820191906000526020600020905b81548152906001019060200180831161045d57829003601f168201915b505050505081526020016006820180546104939061191e565b80601f01602080910402602001604051908101604052809291908181526020018280546104bf9061191e565b801561050c5780601f106104e15761010080835404028352916020019161050c565b820191906000526020600020905b8154815290600101906020018083116104ef57829003601f168201915b505050505081526020016007820180546105259061191e565b80601f01602080910402602001604051908101604052809291908181526020018280546105519061191e565b801561059e5780601f106105735761010080835404028352916020019161059e565b820191906000526020600020905b81548152906001019060200180831161058157829003601f168201915b505050505081526020016008820180546105b79061191e565b80601f01602080910402602001604051908101604052809291908181526020018280546105e39061191e565b80156106305780601f1061060557610100808354040283529160200191610630565b820191906000526020600020905b81548152906001019060200180831161061357829003601f168201915b505050505081526020016009820180546106499061191e565b80601f01602080910402602001604051908101604052809291908181526020018280546106759061191e565b80156106c25780601f10610697576101008083540402835291602001916106c2565b820191906000526020600020905b8154815290600101906020018083116106a557829003601f168201915b50505050508152602001600a820180546106db9061191e565b80601f01602080910402602001604051908101604052809291908181526020018280546107079061191e565b80156107545780601f1061072957610100808354040283529160200191610754565b820191906000526020600020905b81548152906001019060200180831161073757829003601f168201915b50505050508152602001600b8201805461076d9061191e565b80601f01602080910402602001604051908101604052809291908181526020018280546107999061191e565b80156107e65780601f106107bb576101008083540402835291602001916107e6565b820191906000526020600020905b8154815290600101906020018083116107c957829003601f168201915b50505050508152602001600c820180546107ff9061191e565b80601f016020809104026020016040519081016040528092919081815260200182805461082b9061191e565b80156108785780601f1061084d57610100808354040283529160200191610878565b820191906000526020600020905b81548152906001019060200180831161085b57829003601f168201915b50505050508152602001600d820180546108919061191e565b80601f01602080910402602001604051908101604052809291908181526020018280546108bd9061191e565b801561090a5780601f106108df5761010080835404028352916020019161090a565b820191906000526020600020905b8154815290600101906020018083116108ed57829003601f168201915b50505050508152602001600e820180546109239061191e565b80601f016020809104026020016040519081016040528092919081815260200182805461094f9061191e565b801561099c5780601f106109715761010080835404028352916020019161099c565b820191906000526020600020905b81548152906001019060200180831161097f57829003601f168201915b50505050508152602001600f820180546109b59061191e565b80601f01602080910402602001604051908101604052809291908181526020018280546109e19061191e565b8015610a2e5780601f10610a0357610100808354040283529160200191610a2e565b820191906000526020600020905b815481529060010190602001808311610a1157829003601f168201915b50505050508152602001601082018054610a479061191e565b80601f0160208091040260200160405190810160405280929190818152602001828054610a739061191e565b8015610ac05780601f10610a9557610100808354040283529160200191610ac0565b820191906000526020600020905b815481529060010190602001808311610aa357829003601f168201915b5050505050815250509050919050565b816002600082815260200190815260200160002060009054906101000a900460ff1615610b32576040517f08c379a0000000000000000000000000000000000000000000000000000000008152600401610b299061177b565b60405180910390fd5b8260016000858152602001908152602001600020600001819055508160200151600160008581526020019081526020016000206001019080519060200190610b7b929190610f88565b508160400151600160008581526020019081526020016000206002019080519060200190610baa929190610f88565b508160600151600160008581526020019081526020016000206003019080519060200190610bd9929190610f88565b508160800151600160008581526020019081526020016000206004019080519060200190610c08929190610f88565b508160a00151600160008581526020019081526020016000206005019080519060200190610c37929190610f88565b508160c00151600160008581526020019081526020016000206006019080519060200190610c66929190610f88565b508160e00151600160008581526020019081526020016000206007019080519060200190610c95929190610f88565b50816101000151600160008581526020019081526020016000206008019080519060200190610cc5929190610f88565b50816101200151600160008581526020019081526020016000206009019080519060200190610cf5929190610f88565b5081610140015160016000858152602001908152602001600020600a019080519060200190610d25929190610f88565b5081610160015160016000858152602001908152602001600020600b019080519060200190610d55929190610f88565b5081610180015160016000858152602001908152602001600020600c019080519060200190610d85929190610f88565b50816101a0015160016000858152602001908152602001600020600d019080519060200190610db5929190610f88565b50816101c0015160016000858152602001908152602001600020600e019080519060200190610de5929190610f88565b50816101e0015160016000858152602001908152602001600020600f019080519060200190610e15929190610f88565b50816102000151600160008581526020019081526020016000206010019080519060200190610e45929190610f88565b50600083908060018154018082558091505060019003906000526020600020016000909190919091505560016002600085815260200190815260200160002060006101000a81548160ff021916908315150217905550827f23e62903721188d0332c7638dc8a8fbcd6be04a0899bca29a1a76370c72ca4223342604051610ecd929190611715565b60405180910390a2505050565b60006002600083815260200190815260200160002060009054906101000a900460ff169050919050565b60405180610220016040528060008152602001606081526020016060815260200160608152602001606081526020016060815260200160608152602001606081526020016060815260200160608152602001606081526020016060815260200160608152602001606081526020016060815260200160608152602001606081525090565b828054610f949061191e565b90600052602060002090601f016020900481019282610fb65760008555610ffd565b82601f10610fcf57805160ff1916838001178555610ffd565b82800160010185558215610ffd579182015b82811115610ffc578251825591602001919060010190610fe1565b5b50905061100a919061100e565b5090565b5b8082111561102757600081600090555060010161100f565b5090565b600061103e611039846117fd565b6117d8565b90508281526020810184848401111561105657600080fd5b6110618482856118dc565b509392505050565b600082601f83011261107a57600080fd5b813561108a84826020860161102b565b91505092915050565b600061022082840312156110a657600080fd5b6110b16102206117d8565b905060006110c18482850161139f565b600083015250602082013567ffffffffffffffff8111156110e157600080fd5b6110ed84828501611069565b602083015250604082013567ffffffffffffffff81111561110d57600080fd5b61111984828501611069565b604083015250606082013567ffffffffffffffff81111561113957600080fd5b61114584828501611069565b606083015250608082013567ffffffffffffffff81111561116557600080fd5b61117184828501611069565b60808301525060a082013567ffffffffffffffff81111561119157600080fd5b61119d84828501611069565b60a08301525060c082013567ffffffffffffffff8111156111bd57600080fd5b6111c984828501611069565b60c08301525060e082013567ffffffffffffffff8111156111e957600080fd5b6111f584828501611069565b60e08301525061010082013567ffffffffffffffff81111561121657600080fd5b61122284828501611069565b6101008301525061012082013567ffffffffffffffff81111561124457600080fd5b61125084828501611069565b6101208301525061014082013567ffffffffffffffff81111561127257600080fd5b61127e84828501611069565b6101408301525061016082013567ffffffffffffffff8111156112a057600080fd5b6112ac84828501611069565b6101608301525061018082013567ffffffffffffffff8111156112ce57600080fd5b6112da84828501611069565b610180830152506101a082013567ffffffffffffffff8111156112fc57600080fd5b61130884828501611069565b6101a0830152506101c082013567ffffffffffffffff81111561132a57600080fd5b61133684828501611069565b6101c0830152506101e082013567ffffffffffffffff81111561135857600080fd5b61136484828501611069565b6101e08301525061020082013567ffffffffffffffff81111561138657600080fd5b61139284828501611069565b6102008301525092915050565b6000813590506113ae81611a3f565b92915050565b6000602082840312156113c657600080fd5b60006113d48482850161139f565b91505092915050565b600080604083850312156113f057600080fd5b60006113fe8582860161139f565b925050602083013567ffffffffffffffff81111561141b57600080fd5b61142785828601611093565b9150509250929050565b600061143d83836116f7565b60208301905092915050565b61145281611894565b82525050565b60006114638261183e565b61146d8185611861565b93506114788361182e565b8060005b838110156114a95781516114908882611431565b975061149b83611854565b92505060018101905061147c565b5085935050505092915050565b6114bf816118a6565b82525050565b60006114d082611849565b6114da8185611872565b93506114ea8185602086016118eb565b6114f3816119df565b840191505092915050565b600061150b603083611883565b9150611516826119f0565b604082019050919050565b60006102208301600083015161153a60008601826116f7565b506020830151848203602086015261155282826114c5565b9150506040830151848203604086015261156c82826114c5565b9150506060830151848203606086015261158682826114c5565b915050608083015184820360808601526115a082826114c5565b91505060a083015184820360a08601526115ba82826114c5565b91505060c083015184820360c08601526115d482826114c5565b91505060e083015184820360e08601526115ee82826114c5565b91505061010083015184820361010086015261160a82826114c5565b91505061012083015184820361012086015261162682826114c5565b91505061014083015184820361014086015261164282826114c5565b91505061016083015184820361016086015261165e82826114c5565b91505061018083015184820361018086015261167a82826114c5565b9150506101a08301518482036101a086015261169682826114c5565b9150506101c08301518482036101c08601526116b282826114c5565b9150506101e08301518482036101e08601526116ce82826114c5565b9150506102008301518482036102008601526116ea82826114c5565b9150508091505092915050565b611700816118d2565b82525050565b61170f816118d2565b82525050565b600060408201905061172a6000830185611449565b6117376020830184611706565b9392505050565b600060208201905081810360008301526117588184611458565b905092915050565b600060208201905061177560008301846114b6565b92915050565b60006020820190508181036000830152611794816114fe565b9050919050565b600060208201905081810360008301526117b58184611521565b905092915050565b60006020820190506117d26000830184611706565b92915050565b60006117e26117f3565b90506117ee8282611950565b919050565b6000604051905090565b600067ffffffffffffffff821115611818576118176119b0565b5b611821826119df565b9050602081019050919050565b6000819050602082019050919050565b600081519050919050565b600081519050919050565b6000602082019050919050565b600082825260208201905092915050565b600082825260208201905092915050565b600082825260208201905092915050565b600061189f826118b2565b9050919050565b60008115159050919050565b600073ffffffffffffffffffffffffffffffffffffffff82169050919050565b6000819050919050565b82818337600083830152505050565b60005b838110156119095780820151818401526020810190506118ee565b83811115611918576000848401525b50505050565b6000600282049050600182168061193657607f821691505b6020821081141561194a57611949611981565b5b50919050565b611959826119df565b810181811067ffffffffffffffff82111715611978576119776119b0565b5b80604052505050565b7f4e487b7100000000000000000000000000000000000000000000000000000000600052602260045260246000fd5b7f4e487b7100000000000000000000000000000000000000000000000000000000600052604160045260246000fd5b6000601f19601f8301169050919050565b7f4120636572746966696361746520697320616c7265616479207075626c69736860008201527f6564207769746820746869732049642100000000000000000000000000000000602082015250565b611a48816118d2565b8114611a5357600080fd5b5056fea2646970667358221220beb28a900d669673951280f8dee366864739e16a654c85ccc8dc259262283e5b64736f6c63430008010033",
  "immutableReferences": {},
  "source": "// SPDX-License-Identifier: GPL-3.0\n\n\npragma solidity 0.8.1;\n\ncontract Dbbl {\n\n    struct Certificate_payload {\n        uint256 id;\n        string customerId;\n        string emailAddress;\n        string fullName;\n        string fatherName;\n        string motherName;\n        string villageOrHouse;\n        string postOffice;\n        string policeStation;\n        string district;\n        string accountNumber;\n        string accountTitle;\n        string accountType;\n        string accountOpenDate;\n        string currency;\n        string balance;\n        string balanceInWord;\n        // string dateOfBirth;\n        // string spouseName;\n        // string phoneNumber;\n        // string tinNumber;\n        // string nationalIdNumber;\n        // string passportNumber;\n        // string presentAddress;\n        // string permanentAddress;\n    }\n\n    uint256[] published_certificate_ids;\n\n    mapping (uint256 => Certificate_payload) internal certificates;\n\n    mapping (uint256 => bool) internal certificate_is_published;\n\n    event CertificatePublished(uint256 indexed certificate_id, address owner, uint256 date);\n\n    modifier isCertificateIdAvailable(uint256 certificate_id) {\n        require(\n            !certificate_is_published[certificate_id],\n            \"A certificate is already published with this Id!\"\n        );\n        _;\n    }\n\n\n    function publishCertificate(uint256 certificateId, Certificate_payload memory certificatePayload) external isCertificateIdAvailable(certificateId) {\n\n        certificates[certificateId].id = certificateId;\n        certificates[certificateId].customerId = certificatePayload.customerId;\n        certificates[certificateId].emailAddress = certificatePayload.emailAddress;\n        certificates[certificateId].fullName = certificatePayload.fullName;\n        certificates[certificateId].fatherName = certificatePayload.fatherName;\n        certificates[certificateId].motherName = certificatePayload.motherName;\n        certificates[certificateId].villageOrHouse = certificatePayload.villageOrHouse;\n        certificates[certificateId].postOffice = certificatePayload.postOffice;\n        certificates[certificateId].policeStation = certificatePayload.policeStation;\n        certificates[certificateId].district = certificatePayload.district;\n        certificates[certificateId].accountNumber = certificatePayload.accountNumber;\n        certificates[certificateId].accountTitle = certificatePayload.accountTitle;\n        certificates[certificateId].accountType = certificatePayload.accountType;\n        certificates[certificateId].accountOpenDate = certificatePayload.accountOpenDate;\n        certificates[certificateId].currency = certificatePayload.currency;\n        certificates[certificateId].balance = certificatePayload.balance;\n        certificates[certificateId].balanceInWord = certificatePayload.balanceInWord;\n        // certificates[certificateId].dateOfBirth = certificatePayload.dateOfBirth;\n        // certificates[certificateId].spouseName = certificatePayload.spouseName;\n        // certificates[certificateId].phoneNumber = certificatePayload.phoneNumber;\n        // certificates[certificateId].tinNumber = certificatePayload.tinNumber;\n        // certificates[certificateId].nationalIdNumber = certificatePayload.nationalIdNumber;\n        // certificates[certificateId].passportNumber = certificatePayload.passportNumber;\n        // certificates[certificateId].presentAddress = certificatePayload.presentAddress;\n        // certificates[certificateId].permanentAddress = certificatePayload.permanentAddress;\n        \n        \n\n        published_certificate_ids.push(certificateId);\n        certificate_is_published[certificateId] = true;\n\n        emit CertificatePublished(certificateId, msg.sender, block.timestamp);\n    }\n    \n    function getCertificateDetailsById(uint256 certificateId) public view returns (Certificate_payload memory) {\n        return certificates[certificateId];\n    }\n\n    function isCertificateVerified(uint256 certificateId) public view returns (bool) {\n        return certificate_is_published[certificateId];\n    }\n\n    function getPublishedCertificateIds() public view returns (uint256[] memory) {\n        return published_certificate_ids;\n    }\n\n    function getTotalPublishedCerticates() public view returns (uint256) {\n        return published_certificate_ids.length;\n    }\n\n}\n",
  "sourcePath": "/home/bjit/Documents/dbbl/contract/contracts/Dbbl.sol",
  "compiler": {
    "name": "solc",
    "version": "0.8.1+commit.df193b15.Emscripten.clang"
  },
  "schemaVersion": "3.4.3",
  "updatedAt": "2022-10-22T06:31:27.352Z",
  "networkType": "ethereum",
  "devdoc": {
    "kind": "dev",
    "methods": {},
    "version": 1
  },
  "userdoc": {
    "kind": "user",
    "methods": {},
    "version": 1
  }
}