{
  "contractName": "Bank",
  "abi": [
    {
      "inputs": [
        {
          "internalType": "uint256",
          "name": "amount",
          "type": "uint256"
        }
      ],
      "name": "credit",
      "outputs": [],
      "stateMutability": "nonpayable",
      "type": "function"
    },
    {
      "inputs": [
        {
          "internalType": "uint256",
          "name": "amount",
          "type": "uint256"
        }
      ],
      "name": "debit",
      "outputs": [],
      "stateMutability": "nonpayable",
      "type": "function"
    },
    {
      "inputs": [],
      "name": "getBalance",
      "outputs": [
        {
          "internalType": "uint256",
          "name": "",
          "type": "uint256"
        }
      ],
      "stateMutability": "view",
      "type": "function",
      "constant": true
    }
  ],
  "bytecode": "0x60806040526000805534801561001457600080fd5b5061024b806100246000396000f3fe608060405234801561001057600080fd5b50600436106100415760003560e01c806312065fe01461004657806378da744b14610064578063e609d9fc14610080575b600080fd5b61004e61009c565b60405161005b9190610120565b60405180910390f35b61007e600480360381019061007991906100e8565b6100a5565b005b61009a600480360381019061009591906100e8565b6100bc565b005b60008054905090565b806000546100b3919061013b565b60008190555050565b806000546100ca9190610191565b60008190555050565b6000813590506100e2816101fe565b92915050565b6000602082840312156100fa57600080fd5b6000610108848285016100d3565b91505092915050565b61011a816101c5565b82525050565b60006020820190506101356000830184610111565b92915050565b6000610146826101c5565b9150610151836101c5565b9250827fffffffffffffffffffffffffffffffffffffffffffffffffffffffffffffffff03821115610186576101856101cf565b5b828201905092915050565b600061019c826101c5565b91506101a7836101c5565b9250828210156101ba576101b96101cf565b5b828203905092915050565b6000819050919050565b7f4e487b7100000000000000000000000000000000000000000000000000000000600052601160045260246000fd5b610207816101c5565b811461021257600080fd5b5056fea2646970667358221220d2c770badf6b7a1b13dce22347ee053f83ba724c65ebf517a1c30f610832a87264736f6c63430008010033",
  "immutableReferences": {},
  "source": "// SPDX-License-Identifier: GPL-3.0\n\npragma solidity 0.8.1;\n\n\ncontract Bank {\n\n    uint256 balance=0;\n\n\n    function credit(uint256 amount) public {\n        balance = balance + amount;\n    }\n\n    function debit (uint256 amount) public {\n        balance = balance - amount;\n    }\n\n    function getBalance() public view returns (uint256) {\n        return balance;\n    }\n}",
  "sourcePath": "/home/bjit/Desktop/Besu/contract/truffle/contracts/Bank.sol",
  "compiler": {
    "name": "solc",
    "version": "0.8.1+commit.df193b15.Emscripten.clang"
  },
  "schemaVersion": "3.4.3",
  "updatedAt": "2022-06-23T10:02:28.950Z",
  "networkType": "ethereum",
  "devdoc": {
    "kind": "dev",
    "methods": {},
    "version": 1
  },
  "userdoc": {
    "kind": "user",
    "methods": {},
    "version": 1
  }
}